:02000002B0004C
:1040000000400B004A530B00000006000C000502A4
:084010000401B41400000000DB
:044018004C500B00FD
:10401C00034613F8012B002AFBD1181A01387047FC
:10402C0009480A49884208B505D0094A824202D09B
:10403C00121A00F05BFF0748074A0021121A00F021
:10404C0063FF014808BD00BF40E60320B0520B00DF
:10405C00ACE60320ACE60320F0E7032070B5074E76
:10406C00074C00F075FBA41BA4080025AC4200D142
:10407C0070BD56F8043B98470135F7E768520B00C2
:10408C008C520B0000F013B808B500F021F8BDE815
:10409C00084000F015BB00F001BA00F007BA007838
:1040AC00B0FA80F04009704701230370704708B5DF
:1040BC000121052000F044FE00210E2000F040FEFE
:1040CC0000F04EFCBDE808404FF4165100F03CBC2B
:1040DC0073B50E2000F045FE84B20E2000F041FEB8
:1040EC00642685B20E2000F03CFE83B29C4228BFB1
:1040FC001C469D4238BF1D46013EF3D1FF23009361
:10410C00214633462A4680B200F0A6FA0146052025
:10411C0002B0BDE8704000F03BBE000010B5074B8C
:10412C00074A9A600024C3E90044032000F02AF9EE
:10413C0021460120BDE8104000F02CB9ACE603206C
:10414C000000FFFF08B5024B1B689B68019308BD7C
:10415C006802030008B5024B1B68DB68019308BDBD
:10416C006802030008B5024B1B685B68019308BD2D
:10417C002C02030008B5024B1B689B68019308BD19
:10418C002C02030008B5024B1B68DB68019308BDC9
:10419C002C02030008B5024B1B689B6A019308BDF7
:1041AC002C02030008B5024B1B681B6B019308BD66
:1041BC002C02030008B5024B1B689B6F019308BDD2
:1041CC002C02030008B5024B1B685B68019308BD09
:1041DC001802030008B5024B1B685B69019308BD0C
:1041EC001802030008B5024B1B685B6C019308BDF9
:1041FC004802030008B5024B1B685B69019308BDBC
:10420C006402030008B5024B1B68DB68019308BD10
:10421C003C02030008B5024B1B681B69019308BDE7
:10422C003C02030008B5024B1B685B69019308BD97
:10423C003C02030008B5024B1B689B69019308BD47
:10424C003C02030008B5024B1B68DB69019308BDF7
:10425C003C02030008B5024B1B681B6A019308BDA6
:10426C003C02030008B5024B1B689B6A019308BD16
:10427C003C02030008B5024B1B681B6C019308BD84
:10428C003C02030008B5024B1B681B6A019308BD76
:10429C002802030008B5024B1B685B6A019308BD3A
:1042AC002802030008B5024B1B689B6A019308BDEA
:1042BC002802030008B5024B1B68DB6A019308BD9A
:1042CC002802030008B5024B1B681B6B019308BD49
:1042DC002802030008B5024B1B685B6B019308BDF9
:1042EC002802030008B5024B1B681B6C019308BD28
:1042FC002802030008B5024B1B68DB69019308BD5B
:10430C003002030008B5024B1B681B6A019308BD01
:10431C003002030008B5024B1B681B68019308BDF3
:10432C004C02030008B5024B1B685B68019308BD87
:10433C004C02030008B5024B1B681B69019308BDB6
:10434C004C02030008B5024B1B685B69019308BD66
:10435C004C02030008B5024B1B689B69019308BD16
:10436C004C02030008B5024B1B68DB69019308BDC6
:10437C004C02030008B5024B1B681B6A019308BD75
:10438C004C02030008B5024B1B685B68019308BD27
:10439C002002030008B5024B1B68DB6A019308BDC1
:1043AC002002030008B5034B1B68D3F88830019337
:1043BC0008BD00002002030008B5034B1B68D3F8AE
:1043CC009430019308BD00002002030008B5024B95
:1043DC001B685B68019308BD4002030008B5024BE3
:1043EC001B689B68019308BD4002030008B5024B93
:1043FC001B68DB68019308BD4002030008B5024B43
:10440C001B681B69019308BD4002030008B5024BF1
:10441C001B685B69019308BD4002030008B5024BA1
:10442C001B689B69019308BD4002030008B5024B51
:10443C001B68DB69019308BD4002030008B5024B01
:10444C001B681B6A019308BD4002030008B5024BB0
:10445C001B681B6B019308BD4002030008B5024B9F
:10446C001B685B6B019308BD4002030008B5024B4F
:10447C001B681B6C019308BD4002030008B5024B7E
:10448C001B685B6C019308BD4002030008B5024B2E
:10449C001B68DB6B019308BD4402030008B5024B9B
:1044AC001B681B68019308BD1C02030008B5024B76
:1044BC001B685B68019308BD1C02030008B5024B26
:1044CC001B681B6C019308BD1C02030008B5024B52
:1044DC001B685B6C019308BD1C0203000022406842
:1044EC001146FFF7ABBF002240681146FFF7B6BF7D
:1044FC0040680022FFF7AABF4068002281F001014A
:10450C00FFF794BF002340681A461946FFF786BF91
:10451C00002340681A461946FFF778BF002240680E
:10452C001146FFF76BBF002240681146FFF756BFDC
:10453C00406800220221FFF759BF002340681A4649
:10454C00FFF744BF024B03225A60024A1A607047BD
:10455C00B8E6032068500B0010B5044608462170DD
:10456C00FFF7C8FE00236360204610BD054B0222F6
:10457C001A60054B054A9A600020C3E90000FFF75A
:10458C0001BF00BFCCE60320C0E603200000FFFF04
:10459C00024800230360FFF725BE00BFD0E60320CE
:1045AC00F8B506460D468F180024BD420CD0336872
:1045BC0015F8011B9B6830469847031E01DB1C4411
:1045CC00F3E7002C08BF1C462046F8BD13B5044683
:1045DC00084659B10191FFF71BFD23680199DB686F
:1045EC000246204602B0BDE81040184702B010BD8C
:1045FC0003689B68184730B58BB00023012A8DF8EF
:10460C00243098BF0A2209AC0D46B1FBF2F101FB34
:10461C00125303F0FF03092B94BF30333733DBB253
:10462C00AA4204F8013DEFD92146FFF7CFFF0BB0AA
:10463C0030BD0000014B024A1A607047D4E60320DB
:10464C009C500B00024B1A68024B1A60704700BF5B
:10465C0040E60320D8E603208A4210B507D0441A5E
:10466C000298C01A4443501A94FBF0F0184410BD41
:10467C00014B00229A607047DCE60320014B186066
:10468C00704700BF44E6032008B50B4B43B100F064
:10469C0067F903681B699847002801DDAFF30080B8
:1046AC00064B43B100F0B6FB03681B699847002822
:1046BC0001DDAFF3008008BD000000000000000029
:1046CC0008B5FFF7E1FFFFF785FD014B186008BD4A
:1046DC0040E703200548064A064908B5121A00F0BF
:1046EC0005FC054B054A1A6008BD00BF00F4032009
:1046FC0004F403201C530B0000F403201E1C279A07
:10470C0007B5002300931A466FF07701FFF754FEAC
:10471C0003B05DF804FB000007B543880A2B08D0F2
:10472C00502B0BD1094B1B684BB103B05DF804EB5C
:10473C001847FFF7E5FF03B05DF804FB0023009377
:10474C001A466FF07701FFF737FEF4E7F0E6032027
:10475C0010B512480021FFF7B9FE114B1A68114B26
:10476C009A42114B0CBF012200221A7001D0FFF7A4
:10477C00B1FFFFF727FD044600F0CEFB0B4B13B146
:10478C002046AFF3008000210848FFF77FFEBDE80C
:10479C00104007480021FFF705BE00BF89460B00FB
:1047AC0000F403201E1C279AECE6032000000000F6
:1047BC0025470B00704710B518210446FFF76DFC18
:1047CC00204610BDF0B5037D062B8DB00E4600F1D2
:1047DC0004074FF0000412D000F1080515F8011D74
:1047EC000A223046FFF707FFAF42044419D0002CD1
:1047FC00F4D02E213046FFF7FBFE0444EEE72F23C6
:10480C006A4639460A208DF80040FFF7F3FC6846EB
:10481C00FFF7FEFB33680246DB6869463046984773
:10482C00044620460DB0F0BD10B5054B04461122D0
:10483C0040F8043B002100F067FB204610BD00BF90
:10484C00C4500B000346074A10B543F8042B01F182
:10485C00100251F8044B43F8044B9142F9D10A78F9
:10486C001A7010BDC4500B0010B59DF8084044EAF6
:10487C00032343EA024242EA0161042341600375C7
:10488C0010BD000007B5064B0360CB7800938B7806
:10489C004A780978FFF7E8FF03B05DF804FB00BF26
:1048AC00C4500B00417470477047704708B5002125
:1048BC00007CFFF74FFD40EAE07008BD08B5012110
:1048CC00007CFFF747FD40EAE07008BD08B5007CAE
:1048DC00FFF738FD20EAE07008BD08B5007CFFF753
:1048EC0029FD20EAE07008BD13B50446007C019157
:1048FC00FFF728FD0028019901DC607C20B1207CA9
:10490C00FFF730FD20EAE07002B010BD007CFFF72D
:10491C0031BD10B514210446FFF7BFFB204610BD76
:10492C0010B54FF47A73044608460021C4E901130C
:10493C00044B23600123207463741146FFF7EAFCD7
:10494C00204610BDD8500B00007C0022FFF7EABCBB
:10495C0010B514220446002100F0D6FA204610BDF2
:10496C0010B50F4C88B003A8FFF7F2FF2178BFF306
:10497C005B8F11F001010FD120460191FFF78FFBE6
:10498C00019948B103AA0748FFF7CAFF2046FFF771
:10499C008BFB054800F0A4FA024808B010BD00BF1C
:1049AC00F4E60320F8E60320B5480B007047417489
:1049BC00704708B5007CFFF755FC20EAE07008BD95
:1049CC0008B5007CFFF726FC20EAE07008BD08B5AE
:1049DC00007CFFF72FFC40EAE07008BD08B5007CB6
:1049EC00FFF720FC40EAE07008BD007CFFF72ABC12
:1049FC0037B5457C04462DB1207C03B0BDE8304072
:104A0C00FFF700BC007C0191FFF72CFC00280199FA
:104A1C00F2DC284603B030BD10B514210446FFF774
:104A2C003CFB204610BD000010B54FF47A730446D1
:104A3C00084611460022C4E90123044B23600123DC
:104A4C0020746374FFF716FC204610BD08510B0050
:104A5C007047F8B5064615460C468F18BC4206D072
:104A6C00336814F8011B9B6830469847F6E72846D4
:104A7C00F8BD007C0022FFF705BC007C0021FFF78D
:104A8C0009BC007C0021FFF70DBC007C0021FFF766
:104A9C0011BC007C0021FFF715BC10B51421044695
:104AAC00FFF7FBFA204610BD38B5044615464FF407
:104ABC007A730022C4E90123094B21740846236050
:104ACC002946FFF70FFCBF3008D16B69DB0705D512
:104ADC006868FFF7EBFCE868FFF7E8FC204638BD98
:104AEC0038510B00002240681146FFF787BC0022AA
:104AFC0040681146FFF7A2BC002240681146FFF740
:104B0C00ADBC40680022FFF7A1BC4068002281F0D8
:104B1C000101FFF78BBC002340681A461946FFF7CA
:104B2C007DBC002340681A461946FFF76FBC002273
:104B3C0040681146FFF752BC406800220221FFF783
:104B4C0055BC002340681A46FFF740BC024B0422B8
:104B5C005A60024A1A6070470CE7032060510B0040
:104B6C00002340681A46FFF731BC4068002202213E
:104B7C00FFF73CBC002240681146FFF72FBC002217
:104B8C0040681146FFF73ABC002340681A461946A4
:104B9C00FFF73CBC002340681A461946FFF73EBCA1
:104BAC0040680021FFF762BC40680021FFF766BC3B
:104BBC004068002281F00101FFF738BC40680022F8
:104BCC00FFF744BC002240681146FFF747BC0022A7
:104BDC0040681146FFF732BC2DE9F04395B01446FE
:104BEC000D460746FFF720FE00211C220DA8009160
:104BFC0000F08AF940230C9320466B460CAA002146
:104C0C00FFF7A8FA044600284BD102460121686838
:104C1C00FFF7F4FB0221804622466868FFF7EEFBA3
:104C2C00009E81462146002E3BD0002939D1736865
:104C3C00022B03D00A2B11D0F669F4E7B8F1000F60
:104C4C00FAD0716906A8043107ADFFF71BFE0FCD32
:104C5C003C1D0FC42B6823704146EDE7B9F1000FE2
:104C6C00EAD07469102201A800F04EF906238DF8E1
:104C7C00143001AD04F108031834186859682A4639
:104C8C0003C20833A3421546F7D101A906A807AD04
:104C9C00FFF7D8FD0FCD3C1D0FC42B682370494680
:104CAC00CAE70098FFF74EFA384615B0BDE8F08316
:104CBC00024B034A1A6000225A60704714E7032023
:104CCC009C510B00232813B502D9002002B010BD53
:104CDC00A0F10B03022B1AD8174C2178BFF35B8F72
:104CEC0011F001010BD120460191FFF7D8F9019980
:104CFC0028B11248FFF730FC2046FFF7D5F90F4BCF
:104D0C001878FFF7FFFA0028DFD10120DEE7012831
:104D1C0009D800F0BFF80021007CFFF7DBFA80F027
:104D2C000100C0B2D2E709380128EED800F072F8C1
:104D3C00007CFFF78FFAF2E71CE7032020E7032043
:104D4C00232838B504460D460AD8FF2908D0FFF7AA
:104D5C00B9FF28B129462046BDE83840FFF70ABA0A
:104D6C0038BD0D2810B504469CBF0E34A4B22046A5
:104D7C00FFF7A8FF50B103212046FFF7F3F90328F2
:104D8C0004D12046BDE81040FFF70CBA002010BD3E
:104D9C0038B504460D46FFF795FFF0B104212046C7
:104DAC00FFF7E0F9042805D1A9B22046BDE8384048
:104DBC00FFF7F0B902212046FFF7D4F902280CD1F5
:104DCC002046FFF7DFF9012801D0042805D1294638
:104DDC002046BDE83840FFF7EDB938BD70470000FC
:104DEC0038B5044614252A46002100F08DF825809C
:104DFC004025074925812846258200F06FF8044993
:104E0C006060284600F06AF8E060204638BD00BFBC
:104E1C00D0510B0030B50E4D2978BFF35B8F11F0DC
:104E2C00010487B011D12846FFF739F968B101A800
:104E3C00FFF7D6FF01AA21460648FFF7F5FD2846E5
:104E4C00FFF732F9044800F04BF8024807B030BDC8
:104E5C0028E703202CE70320E94D0B0070470000E6
:104E6C0038B50A4B036001230446436108492020EE
:104E7C0000F034F8202560600549A560284600F054
:104E8C002DF8C4E90305204638BD00BF1800010009
:104E9C00D0510B0030B50E4D2978BFF35B8F11F05C
:104EAC00010487B011D12846FFF7F9F868B16846BC
:104EBC00FFF7D6FF6A4621460648FFF7F5FD284660
:104ECC00FFF7F2F8044800F00BF8024807B030BDC9
:104EDC0044E7032048E70320694E0B00FFF7DBB8DB
:104EEC00002301461A46184600F044B80A44914281
:104EFC0000F1FF3300D1704710B511F8014B03F8E6
:104F0C00014F9142F9D110BD02440346934200D1A6
:104F1C00704703F8011BF9E738B5104B1D68AB6BF4
:104F2C000446B3B91820FFF7B9FA0246A86320B9B2
:104F3C000B4B0C484221FFF7C1FA0B490B4BC0E954
:104F4C0000130B4B83600B23838100210120C2E9EA
:104F5C000401AB6B00221C615A6138BD44E603208E
:104F6C00D1510B00E8510B000E33CDAB34126DE672
:104F7C00ECDE05002DE9F843DFF8B8800646D8F8DA
:104F8C0000001F460D46914600F056F8254B1C6854
:104F9C0034B9254C1C60254B13B11B68C4F8883000
:104FAC0063681F2B07DDD8F8000000F047F84FF0BE
:104FBC00FF30BDE8F8834EB3D4F8880088B91C4B99
:104FCC0023B9D8F8000000F038F8F0E74FF48470FB
:104FDC00FFF764FA0028F4D00023C0E94033C4F88A
:104FEC008800636840F8239001229A4000EB83010B
:104FFC00D0F800311343C0F80031022EC1F8807094
:10500C0002BFD0F804311343C0F804316368D8F8F8
:10501C0000005A1C0233626044F8235000F00EF872
:10502C000020C6E7E8E703205CE70320000000004F
:10503C00A9440B00A8E60320704770477047000096
:10504C002D400B0069400B0091400B0095400B006C
:10505C0000000000000000000000000047450B00AD
:10506C003D450B0033450B0029450B001D450B003E
:10507C0011450B00AD4B0B00B54B0B0005450B0060
:10508C00FD440B00F3440B00E9440B00E54B0B0013
:10509C006170700025592D256D2D25645425483AD5
:1050AC00254D3A2553257A0061736374696D65004B
:1050BC000000000000000000D1470B00C1470B00AE
:1050CC00C3470B000000000000000000B7480B00B5
:1050DC001F490B00F5480B00AD450B00E7480B00D2
:1050EC00B9480B00C9480B0019490B00D9480B00F3
:1050FC00B1480B000000000000000000B9490B0093
:10510C00254A0B00FD490B00AD450B00CD490B00AA
:10511C00E9490B00DB490B00F7490B00BB490B00BD
:10512C00BF490B0000000000000000005D4A0B00AE
:10513C00A74A0B007F4A0B005F4A0B00874A0B0003
:10514C008F4A0B00974A0B009F4A0B00000000008F
:10515C00000000004F4B0B00454B0B003B4B0B0072
:10516C00F14A0B002F4B0B00234B0B00AD4B0B00EC
:10517C00B54B0B00174B0B000F4B0B00054B0B00EB
:10518C00FB4A0B00E54B0B00000000000000000088
:10519C006D4B0B00774B0B00814B0B008B4B0B00BB
:1051AC00954B0B00A14B0B00AD4B0B00B54B0B0003
:1051BC00BD4B0B00C94B0B00D14B0B00DB4B0B0059
:1051CC00E54B0B00005245454E54206D616C6C6FE5
:1051DC006320737563636565646564002F6D6E741D
:1051EC002F776F726B73706163652F776F726B7350
:1051FC00706163652F4743432D31302D70697065A5
:10520C006C696E652F6A656E6B696E732D474343CF
:10521C002D31302D706970656C696E652D34385F79
:10522C0032303230313132345F3136303631383021
:10523C003634312F7372632F6E65776C69622F6E03
:10524C0065776C69622F6C6962632F7374646C6927
:10525C00622F72616E642E630000000029410B0006
:10526C0051450B0079450B009D450B0041460B0049
:10527C0051460B007D460B00594B0B00BD4C0B00EF
:10528C00040000001400000003000000474E55000D
:10529C004BF205D80BE78954B903B84145A76138DF
:0452AC00A7B0252D55
:1052B000B4500B0048E6032000000000000000008E
:1052C00000000000000000000000000000000000DE
:1052D00000000000000000000000000000000000CE
:1052E00000000000000000000000000000000000BE
:1052F00000000000000000000000000000000000AE
:10530000000000000000000000000000000000009D
:0C5310000000000000000000ECE703209B
:04531C00000000008D
:1053260000000102030405060708090A0B0C0D0E0E
:105336000F101112131415161718191A1B1C1D1EFF
:045346001F202800FC
:04534A00785634124B
:04000003B000401CED
:00000001FF
